:020000040800F2
:10000000A00A002019850008718400087384000884
:1000100075840008778400087984000800000000D7
:100020000000000000000000000000007B840008C9
:100030007D840008000000007F840008233300084E
:100040000D8600081186000815860008198600082C
:100050001D860008218600082586000829860008DC
:100060002D8600083186000835860008398600088C
:100070003D860008418600089F3D0008A93D000814
:100080004D860008518600085586000859860008EC
:10009000818400086186000865860008A57600084E
:1000A0006D8600087186000875860008798600084C
:1000B0007D860008818600088586000889860008FC
:1000C0008D860008893D0008933D00089986000848
:1000D0009D86000889840008A5860008A986000876
:1000E000AD860008B1860008B586000810B582B05C
:1000F0000400DFF8780790F82400002820D0E4B24C
:10010000002C03D002208DF8000002E000208DF8C2
:10011000000000AB0122DFF854070068417CDFF8E3
:100120004C074068007801F0A1FF002802D05FF082
:10013000FF3038E0DFF834079DF80010417431E0FB
:10014000DFF82807807A002802D15FF0FF302AE02C
:10015000E4B2002C06D0DFF81407407C002801D060
:10016000002020E0E4B2002C03D001208DF8000034
:1001700002E000208DF8000000AB0122DFF8EC0661
:100180000068417CDFF8E4064068007801F06EFF0B
:10019000002802D05FF0FF3005E0DFF8D0069DF8C0
:1001A00000104174002016BD10B582B00400E4B206
:1001B000292C02D35FF0FF3074E0E4B2002C1FD191
:1001C000002000F071FF00208DF8000007208DF85E
:1001D000010000AB0222DFF894060068417DDFF8E1
:1001E0008C064068007801F041FF002802D05FF0E3
:1001F000FF3057E0DFF8740600210175002051E060
:10020000012000F051FF20208DF80000E4B2012C05
:1002100006D100208DF80100052000F063FA19E0F6
:10022000E4B2062C06D201208DF80100052000F072
:1002300059FA0FE0E4B2152C06D202208DF8010025
:100240000A2000F04FFA05E003208DF80100142089
:1002500000F048FA9DF80100800150F007008DF889
:10026000010000AB0222DFF804060068417DDFF8E0
:10027000FC054068007801F0F9FE002802D05FF02C
:10028000FF300FE0DFF8E40508218172DFF8DC05BC
:1002900000210173DFF8D40501210175002000F071
:1002A0006EFB002016BD80B5DFF8EC08807A0028D0
:1002B00002D15FF0FF300BE100208DF8000000ABB1
:1002C0000122DFF8D4080068417CDFF8CC084068E0
:1002D000007801F0CBFE002802D05FF0FF30F7E09D
:1002E00000AB0122DFF8B00800684179DFF8A80808
:1002F0004068007801F0BAFE002802D05FF0FF30BD
:10030000E6E000AB0122DFF8900800680179DFF831
:1003100088084068007801F0A9FE002802D05FF04C
:10032000FF30D5E0DFF8700890F82400002866D090
:100330000C208DF8000000AB0122DFF85C0800689B
:100340000179DFF854084068007801F08FFE00283A
:1003500002D05FF0FF30BBE0322001F029FFC02067
:100360008DF80000DFF83008807AC00705D59DF8C9
:10037000000050F020008DF8000000AB0122DFF8F3
:10038000180800680179DFF810084068007801F06B
:100390006DFE002802D05FF0FF3099E0DFF8F8072B
:1003A000407C002803D002208DF8000002E00020ED
:1003B0008DF8000000AB0122DFF8DC070068417C0B
:1003C000DFF8D4074068007801F050FE002802D022
:1003D0005FF0FF307CE000208DF8000000AB0122D0
:1003E000DFF8B40700684179DFF8AC0740680078AF
:1003F00001F03CFE00286AD05FF0FF3068E0042086
:100400008DF8000000AB0122DFF88C07006801794D
:10041000DFF884074068007801F028FE002802D049
:100420005FF0FF3054E0DFF87007807C002804D1D3
:10043000DFF86407807AC00703D440208DF80000FD
:1004400002E060208DF8000000AB0122DFF84807D1
:1004500000680179DFF840074068007801F006FE87
:10046000002802D05FF0FF3032E0322001F0A0FE21
:10047000DFF82407407C002803D001208DF800001D
:1004800002E000208DF8000000AB0122DFF8080731
:100490000068417CDFF800074068007801F0E6FD65
:1004A000002802D05FF0FF3012E0DFF8F83B0122B5
:1004B000DFF8E40600684179DFF8DC064068007880
:1004C00001F0D4FD002802D05FF0FF3000E00020F2
:1004D00002BD0100DFF8C006007A002805D002281E
:1004E0000AD005D303280BD00EE0FA2008800DE0D7
:1004F0004FF4FA70088009E04FF47A70088005E044
:100500004FF4FA60088001E0002008800020704766
:1005100010B582B00400DFF88006807A002802D18E
:100520005FF0FF3044E0A4B22000FA2809D0B0F513
:10053000FA7F0AD0B0F57A7F0BD0B0F5FA6F0CD005
:100540000FE000208DF800000EE008208DF800007C
:100550000AE010208DF8000006E018208DF8000059
:1005600002E05FF0FF3023E0DFF82C06007A9DF810
:100570000010C9B2C908884201D1002018E000ABC0
:100580000122DFF8140600688179DFF80C06406864
:10059000007801F06BFD002802D05FF0FF3007E02B
:1005A000DFF8F4059DF80010C9B2C90801720020F7
:1005B00016BD0100DFF8E005407A002805D00228CA
:1005C00009D005D3032809D00BE0022008700BE006
:1005D0000420087008E00820087005E0102008706A
:1005E00002E05FF0FF3008E0DFF8AC05C07C0028D7
:1005F00002D00878400008700020704710B582B023
:100600000400DFF89405807A002802D15FF0FF3003
:1006100041E0E4B22000022806D0042808D00828CF
:100620000AD010280CD00FE000208DF800000EE05A
:1006300008208DF800000AE010208DF8000006E088
:1006400018208DF8000002E05FF0FF3023E0DFF8B3
:100650004805407A9DF80010C9B2C908884201D106
:10066000002018E000AB0122DFF82C050068C179FA
:10067000DFF824054068007801F0F8FC002802D07B
:100680005FF0FF3007E0DFF810059DF80010C9B2F9
:10069000C9084172002016BD0100DFF8FC04C07AD1
:1006A000012809D01AD303280CD008D305280FD06D
:1006B0000BD306280FD011E0BC20088010E0622088
:1006C00008800DE02A2008800AE01420088007E056
:1006D0000A20088004E00520088001E0002008804E
:1006E0000020704710B582B004006048807A00286E
:1006F00002D15FF0FF3041E0A4B2BC2C03D3012053
:100700008DF800001EE0A4B2622C03D302208DF805
:10071000000017E0A4B22A2C03D303208DF80000B8
:1007200010E0A4B2142C03D304208DF8000009E0DB
:10073000A4B20A2C03D305208DF8000002E00620A5
:100740008DF800004948C07A9DF80010884201D118
:10075000002013E000AB0122444800688178434840
:100760004068007801F082FC002802D05FF0FF3082
:1007700004E03E489DF80010C172002016BD010043
:10078000DFF8140490F82400002802D05FF0FF3056
:1007900004E0DFF80404C08908800020704710B529
:1007A00082B004003148807A002802D15FF0FF3027
:1007B0005AE02E4890F82400002802D05FF0FF3065
:1007C00052E02A48007D00280ED0A4B2002C08D0A8
:1007D000A4B2292C05D22000C0B2FFF7E5FC00200E
:1007E00042E00020FFF7E0FCA4B2042C02D2042077
:1007F000040007E040F2E930A4B2844202D34FF48F
:100800007A7004004FF47A70A4B290FBF4F0401EAA
:100810008DF8000000AB01221448006841781348AD
:100820004068007801F022FC002802D05FF0FF3021
:100830001AE04FF47A709DF80010491C90FBF1F01B
:100840000A49C8810948008D642802D20748008DF2
:1008500000E0642080B200F00BF80448C08980B248
:100860004008FFF73FFF002016BD000000000020F9
:1008700010B582B00400A4B2002C08D0DFF8180331
:10088000C089A4B2A04202D3A4B2652C02D35FF007
:10089000FF3025E0DFF80003C089A4B290FBF4F03C
:1008A000401E8DF8000000AB0122DFF8EC0200686A
:1008B00090F82410DFF8E0024068007801F0D6FBE1
:1008C000002802D05FF0FF300AE0DFF8CC02C089D8
:1008D0009DF80010491C90FBF1F0AF4908850020FD
:1008E00016BD0100AC48007A002805D002280BD0C4
:1008F00006D303280CD00FE0DFF8F00B08600EE001
:10090000DFF8EC0B08600AE0DFF8E80B086006E0AF
:10091000DFF8E40B086002E05FF0FF3000E0002049
:10092000704701009C48407A002805D002280BD06F
:1009300006D303280CD00FE04FF4804008800EE06F
:1009400041F69C7008800AE04FF48050088006E071
:100950004FF40060088002E05FF0FF3008E08E484E
:10096000C07C002803D0088880B24008088000209E
:10097000704701008848007C08700020704770B5FF
:100980000600002516F0FE06834890F82400002893
:1009900001D0002034E08048807A002802D15FF046
:1009A000FF302DE07C48007C04007B48807A30409A
:1009B000794908747848007CF6B2B04203D05FF001
:1009C000FF30050001E000200500F6B2002E03D143
:1009D0007148007D002803D00120FFF787FB02E06B
:1009E0000020FFF783FBF6B2002E08D0FFF75BFC78
:1009F000002804D0684804745FF0FF3000E028004D
:100A000070BD10B582B004007020044203D00120F4
:100A10008DF8000009E0E4B2002C03D000208DF82E
:100A2000000002E040208DF8000000AB01225A488F
:100A30000068417D58484068007801F017FB0028A5
:100A400005D05548002181725FF0FF30A3E0524885
:100A50009DF8001011F0BF01017300208DF8000017
:100A6000600605D49DF8000050F004008DF80000E9
:100A7000A00605D49DF8000050F002008DF800009B
:100A8000E00605D49DF8000050F001008DF800004C
:100A9000200705D49DF8000050F038008DF80000C4
:100AA00000AB01223C480068817D3B4840680078EB
:100AB00001F0DCFA002805D03748002181725FF090
:100AC000FF3068E0E4B2002C05D0E4B2082C02D07C
:100AD000002000F0E9FA0DF1010301222E48006820
:100AE00001792D484068007801F0F3FA002802D01F
:100AF0005FF0FF304FE0E00709D501208DF80000DE
:100B00009DF8010050F020008DF8010008E0002061
:100B10008DF800009DF8010010F0DF008DF8010055
:100B20001D4890F82400002806D09DF8010050F0E0
:100B300080008DF8010005E09DF8010010F07F00B5
:100B40008DF8010000AB01221348006890F82610D0
:100B500011484068007801F089FA002802D05FF05F
:100B6000FF3018E00DF1010301220B480068017904
:100B700009484068007801F079FA002802D05FF057
:100B8000FF3008E0044884720348002101753220D8
:100B900001F00EFB002016BD000000202DE9FE4FE5
:100BA00004000D0016001F00DDF830805FF0000B20
:100BB0005FF0000ADFF8CC0D90F82400002802D086
:100BC0005FF0FF302EE100203870DFF8B80D807A3A
:100BD000002802D15FF0FF3024E1DFF8A80D007C8F
:100BE000002802D15FF0FF301CE1DFF8980D007C97
:100BF000400601D51BF1020BDFF8880D007C800652
:100C000001D51BF1020BDFF87C0D007CC00601D57D
:100C10001BF1020BDFF86C0D007C000701D51BF106
:100C2000060B00AB0222DFF85C0D0068017BDFF8E9
:100C3000540D4068007801F04CFA002802D05FF0B3
:100C4000FF30EFE09DF800009DF8011051EA002010
:100C500081465846C0B21FFA89F980B2814501D257
:100C60000020DFE0DFF81C0D4068408880B24008BB
:100C70001FFA89F9484519D200AB0122DFF8040DAB
:100C80000068C17CDFF8FC0C4068007801F021FAB4
:100C9000002802D05FF0FF30C4E09DF80000C006DD
:100CA00004D5FFF700FB7FF00100BBE000AB5A4624
:100CB000D2B2DFF8D00C0068417BDFF8C80C406886
:100CC000007801F006FA002802D05FF0FF30A9E0BA
:100CD0001FFA89F95FFA8BFB99FBFBF0401E88F83D
:100CE0000000002038705846C0B21FFA8AFA80B25D
:100CF000824536D0DFF88C0C007C000731D51FFA16
:100D00008AFA00A81AF800001FFA8AFA00A91AEB5A
:100D10000101497851EA002028801FFA8AFA00A8C8
:100D20001AEB000080781FFA8AFA00A91AEB010179
:100D3000C97851EA002068801FFA8AFA00A81AEBE5
:100D4000000000791FFA8AFA00A91AEB010149791B
:100D500051EA0020A880387850F0080038701AF165
:100D6000060A5846C0B21FFA8AFA80B2824518D0E5
:100D7000DFF8100C007C400613D51FFA8AFA00A891
:100D80001AF800001FFA8AFA00A91AEB0101497843
:100D900051EA00202080387850F0400038701AF175
:100DA000020A5846C0B21FFA8AFA80B2824518D0A9
:100DB000DFF8D00B007C800613D51FFA8AFA00A852
:100DC0001AF800001FFA8AFA00A91AEB0101497803
:100DD00051EA00206080387850F0200038701AF115
:100DE000020A5846C0B21FFA8AFA80B2824518D069
:100DF000DFF8900B007CC00613D51FFA8AFA00A812
:100E00001AF800001FFA8AFA00A91AEB01014978C2
:100E100051EA0020A080387850F0100038701AF1A4
:100E2000020A0020BDE8FE8FF8B504000D00160090
:100E3000DFF8500B90F82400002802D15FF0FF305B
:100E400064E0DFF8400B807A002802D15FF0FF30C9
:100E50005CE000AB0222DFF82C0B0068017BDFF8BE
:100E6000240B4068007801F034F9002802D05FF0CC
:100E7000FF304BE09DF800009DF8011051EA002082
:100E80000700BFB2A4B2A74204D2002030705FF0C6
:100E9000FF303BE0DFF8EC0A4068408880B2400851
:100EA000BFB2B84219D200AB0122DFF8D80A0068FD
:100EB000C17CDFF8D00A4068007801F00AF9002808
:100EC00002D05FF0FF3021E09DF80000C00604D59D
:100ED000FFF7E9F97FF0010018E02B002200D2B201
:100EE000DFF8A00A0068417BDFF8980A40680078C4
:100EF00001F0EFF8002802D05FF0FF3006E0BFB24B
:100F0000A4B297FBF4F0401E30700020F2BD10B583
:100F100082B00400DFF86C0A807CE4B2A04201D108
:100F20000020BEE0E4B2002C56D000AB0122DFF876
:100F3000540A00680179DFF84C0A4068007801F033
:100F4000C8F8002802D05FF0FF30AAE09DF800004A
:100F500010F0DF008DF8000000AB0122DFF8240A5A
:100F600000680179DFF81C0A4068007801F07EF81B
:100F7000002802D05FF0FF3093E0032001F018F961
:100F800002208DF80000DFF8FC0990F8220000280C
:100F900005D09DF8000050F080008DF80000DFF8CB
:100FA000E40990F82300002805D09DF8000050F0D7
:100FB00030008DF8000000AB0122DFF8C80900689E
:100FC000C17DDFF8C0094068007801F04FF80028C3
:100FD00063D05FF0FF3064E000AB0122DFF8A409CA
:100FE00000680179DFF89C094068007801F071F829
:100FF000002802D05FF0FF3053E0DFF88809807AE4
:10100000C00706D59DF8000050F020008DF80000C4
:1010100005E09DF8000010F0DF008DF8000000AB47
:101020000122DFF8600900680179DFF8580940689B
:10103000007801F01BF8002802D05FF0FF3030E0AC
:10104000032001F0B5F8DFF83C0990F822000028F1
:1010500003D080208DF8000002E000208DF8000011
:10106000DFF8200990F82300002805D09DF8000043
:1010700050F030008DF8000000AB0122DFF80409C9
:101080000068C17DDFF8FC084068007800F0EEFFE2
:10109000002802D05FF0FF3003E0DFF8E808847436
:1010A000002016BD1000002010B582B00400DFF84B
:1010B000D40890F82300E4B2A04201D1002036E029
:1010C000E4B2002C03D030208DF8000002E00020B4
:1010D0008DF80000DFF8AC08807C002805D09DF872
:1010E000000050F002008DF80000DFF8980890F83A
:1010F0002200002805D09DF8000050F080008DF8F7
:10110000000000AB0122DFF87C080068C17DDFF839
:1011100074084068007800F0A9FF002802D05FF052
:10112000FF3004E0DFF85C0880F82340002016BDA3
:1011300030B583B0040000AB04220D21DFF8440871
:101140004068007800F0C5FF002801D0072052E079
:101150009DF80000C0B2C00810F01C009DF80310FC
:10116000C1F3011108438DF804009DF80100C0B2DD
:10117000C00810F01C009DF80310C1F38101084362
:101180008DF805009DF80200C0B2C00810F01C00E8
:101190009DF8031011F0030108438DF806000020AC
:1011A0000500EDB2032D25D2EDB201A8285C002880
:1011B00004D1EDB2002044F8250019E0EDB2DFF8CB
:1011C000040C44F82500EDB201A8285C401EEDB2E5
:1011D00001A96854C0B200280AD0EDB254F8250025
:1011E000DFF8E41B01F008F8EDB244F82500EAE767
:1011F0006D1CD6E700203EBD2DE9FE4304000D0026
:10120000002700A8FFF794FF00200600032E3EDA17
:1012100054F8260055F82610401A01F059F801F04C
:101220005BF85FF08F4101F087F8804600A850F826
:101230002600002101F0FEF816D0404600A951F822
:10124000261001F079F8DFF8841B01F001F98146DE
:1012500039F00041DFF8780B406A01F03BF914D215
:101260000120B040074310E04046DFF8641BC96925
:1012700001F030F906D3DFF8580B006A414601F05F
:1012800029F902D20120B0400743761CBEE738009E
:10129000BDE8FE832DE9F04782B004000D00002771
:1012A00000AB03220D21DFF8DC064068007800F077
:1012B00010FF002801D007206AE09DF8000010F020
:1012C0001F008DF800009DF8010010F01F008DF840
:1012D00001009DF8020010F01F008DF802000020B0
:1012E0000600032E53DA54F8260055F82610401A4B
:1012F00000F0EEFF00F0F0FF5FF08F4101F01CF80E
:10130000814600A8305C00282ED0DFF8C40A0068AF
:1013100000F0ECFF0100DFF8BC0A01F00DF8804698
:1013200000A8305C401E00A97054C0B2002806D04E
:10133000DFF8A40A414600F05FFF8046F0E7484628
:10134000414600F0F9FFDFF8841A01F081F8824687
:101350003AF00041DFF8780A806901F0BBF814D256
:101360000120B040074310E04846DFF8641A0969DD
:1013700001F0B0F806D3DFF8580A4069494601F099
:10138000A9F802D20120B0400743761CA9E7380033
:10139000BDE8F6877CB50A2607240120FFF7B7FDD4
:1013A00000208DF8000000AB01220A21DFF8D405EF
:1013B00090F82A0000F05AFE002801D0072094E09F
:1013C00040208DF8000000AB01220C21DFF8B405AD
:1013D00090F82A0000F04AFE00286AD108208DF813
:1013E000000000AB01220A21DFF8980590F82A00DE
:1013F00000F03CFE00285CD10A2000F0D9FE00ABD2
:1014000001220221DFF87C0590F82A0000F061FE3D
:1014100000284ED19DF80000C00704D43000461EBD
:10142000C0B20028E8D19DF80000C00741D500AB4C
:1014300006220321DFF84C0590F82A0000F049FE4F
:10144000002836D1002004009DF801009DF800100E
:1014500051EA002005002DB2652D04DA7FF063000B
:101460002DB2854201DA54F001049DF803009DF885
:10147000021051EA002005002DB2652D04DA7FF03C
:1014800063002DB2854201DA54F002049DF8050094
:101490009DF8041051EA002005007FF495702DB2EC
:1014A000854204DADFF834092DB2854201DA54F0BE
:1014B000040400208DF8000000AB01220C21DFF8AD
:1014C000C40490F82A0000F0D1FD00208DF800003F
:1014D00000AB01220A21DFF8AC0490F82A0000F0EA
:1014E000C5FD0020FFF713FD200076BD000003437B
:1014F0000000834233330342333383412DE9F04309
:1015000087B004000D00904601208DF800000020F7
:101510008DF8010000AB0222DFF868040068417D0D
:10152000DFF860044068007800F0A0FD002802D0D9
:101530005FF0FF3022E2C82000F03AFE00208DF874
:10154000000000AB0122DFF83C040068417CDFF8BA
:1015500034044068007800F089FD002802D05FF074
:10156000FF300BE200AB0122DFF81804006841797C
:10157000DFF810044068007800F078FD002802D001
:101580005FF0FF30FAE100AB0122DFF8F8030068FA
:10159000417DDFF8F0034068007800F067FD002827
:1015A00002D05FF0FF30E9E100AB0122DFF8D403A5
:1015B0000068817EDFF8CC034068007800F056FDBB
:1015C000002802D05FF0FF30D8E100AB0122DFF845
:1015D000B40300680179DFF8AC034068007800F0DC
:1015E00045FD002802D05FF0FF30C7E10C208DF8E8
:1015F000000000AB0122DFF88C0300680179DFF8FE
:1016000084034068007800F031FD002802D05FF0CC
:10161000FF30B3E10F2000F0CBFDDA48406B407A99
:101620008DF8000000AB0122D64800688178D548CB
:101630004068007800F01AFD002802D05FF0FF300B
:101640009CE1D048406B007A8DF8000000AB01228D
:10165000CC4800684178CB484068007800F006FD2F
:10166000002802D05FF0FF3088E15FFA88F8B8F117
:10167000000F07D0C348406B807A50F0E0008DF82F
:10168000000004E0BF48406B807A8DF8000000AB9A
:101690000122BC4800688179BA484068007800F0AF
:1016A000E5FC002802D05FF0FF3067E15FFA88F8C0
:1016B000B8F1000F07D0B348406BC07A50F0E0009B
:1016C0008DF8000004E0DFF80807C07A8DF800000C
:1016D00000AB0122AB480068C179AA484068007895
:1016E00000F0C4FC002802D05FF0FF3046E15FFA52
:1016F00088F8B8F1000F02D0C82000F059FD402052
:101700008DF8000000AB01229E48006801799D48D9
:101710004068007800F0AAFC002802D05FF0FF309B
:101720002CE178208DF8000000AB0122954800687C
:10173000417994484068007800F098FC002802D075
:101740005FF0FF301AE1DFF88806808900F030FD95
:1017500000208DF8000000AB01228A480068417922
:1017600088484068007800F081FC002802D05FF0D3
:10177000FF3003E100AB022282480068017B814810
:101780004068007800F0A5FC002802D05FF0FF3030
:10179000F4E09DF800009DF8011051EA0020814618
:1017A0001FFA89F90C2099FBF0F007000020A060D7
:1017B000606020600020A86068602860002006004B
:1017C000F6B2FFB2BE425ED200AB0C226D4800689A
:1017D000417B6C484068007800F07BFC002802D018
:1017E0005FF0FF30CAE09DF800009DF8011051EA5B
:1017F0000020ADF814009DF802009DF8031051EA96
:101800000020ADF816009DF804009DF8051051EA7F
:101810000020ADF818002868BDF9141008182860D9
:101820006868BDF9161008186860A868BDF9181036
:101830000818A8609DF806009DF8071051EA0020DE
:10184000ADF80C009DF808009DF8091051EA002041
:10185000ADF80E009DF80A009DF80B1051EA00202B
:10186000ADF810002068BDF90C1008182060606801
:10187000BDF90E1008186060A068BDF910100818B6
:10188000A060761C9CE72068C117090441EA10415A
:101890000004DFF83C251268002300F02DFEFFB2A3
:1018A0003A00002300F028FE20606068C117090498
:1018B00041EA10410004DFF818251268002300F007
:1018C0001BFEFFB23A00002300F016FE6060A06825
:1018D000C117090441EA10410004DFF8F42412683A
:1018E000002300F009FEFFB23A00002300F004FEDE
:1018F000A0602868C117090441EA10410004DFF81C
:10190000D0245268002300F0F7FDFFB23A00002314
:1019100000F0F2FD28606868C117090441EA10412F
:101920000004DFF8AC245268002300F0E5FDFFB2AC
:101930003A00002300F0E0FD6860A868C1170904C0
:1019400041EA10410004DFF888245268002300F0C7
:10195000D3FDFFB23A00002300F0CEFDA860A868D6
:10196000012806DBA86800F17F4010F57F00A86021
:1019700003E0A86810F58030A860002007B0BDE83B
:10198000F0830000000000202DE9F04F89B0040032
:101990000D000226DFF8700690F82400002805D01C
:1019A000002000F0BBF90120824601E000208246C1
:1019B00002A8FEF78EFD0DF10100FEF7FAFD01A869
:1019C000FEF76AFE0DF10600FEF7D9FEDFF83806D5
:1019D000807A814600A8FEF7CCFF00208346F6B24D
:1019E000B34509DA002229002000FFF787FD00280F
:1019F00002D01BF1010BF2E7F6B2B34502D1002091
:101A0000804636E000208346F6B2B34509DA01226B
:101A100003A906A8FFF772FD002802D01BF1010BF5
:101A2000F2E7F6B2B34502D10020804621E003A9D7
:101A30002800FFF7E1FB8DF8030006A92000FFF75F
:101A400029FC8DF80200002080469DF80200002845
:101A500001D158F001089DF80300002801D158F089
:101A60000208FFF797FC0700FFB2002F01D158F0E2
:101A70000408DFF89405FF210172DFF88C05FF21CF
:101A80004172DFF88405FF21C172DFF87C054FF653
:101A9000FF71C181DFF87005FF218172DFF86805F1
:101AA000FF210174DFF8600501210173BDF8080012
:101AB000FEF72EFD9DF80100FEF7A0FDBDF8040025
:101AC000FEF710FEBDF80600FEF769FE4846C0B2FC
:101AD000FEF797FF9DF80000FEF751FF5FFA8AFAC4
:101AE000BAF1000F02D0012000F018F9404609B009
:101AF000BDE8F08F70B582B006000C001500002D17
:101B000002D15FF0FF303FE0DFF8FC04807A00286C
:101B100002D15FF0FF3037E0B6B2300A8DF8000036
:101B200030008DF80100DFF8E004406840899DF83E
:101B30000110A4B26118884202DA5FF0FF3023E09E
:101B400000AB0222DFF8C0040068C17EDFF8B804F1
:101B50004068007800F08AFA002802D05FF0FF3079
:101B600012E02B002200D2B2DFF89C040068017E54
:101B7000DFF894044068007800F078FA002802D07A
:101B80005FF0FF3000E0002076BD70B582B0060047
:101B90000C001500002D02D15FF0FF303FE0DFF8B0
:101BA0006804807A002802D15FF0FF3037E0B6B2D7
:101BB000300A8DF8000030008DF80100DFF848048D
:101BC000406840899DF80110A4B26118884202DA89
:101BD0005FF0FF3023E000AB0222DFF82C04006846
:101BE000C17EDFF824044068007800F03FFA002846
:101BF00002D05FF0FF3012E02B002200D2B2DFF8FB
:101C000008040068017EDFF800044068007800F0F6
:101C100060FA002802D05FF0FF3000E0002076BDBF
:101C20002DE9F04385B004000D0016001F0001A847
:101C3000102100F00BFDDFF8D00390F825000028FC
:101C400002D05FF0FF3066E0002D02D15FF0FF3080
:101C500061E0002081461FFA89F9A4B2A14539D27A
:101C6000A4B21FFA89F9B4EB0900112802DB5FF076
:101C7000100801E0B4EB09081FFA89F919EB050215
:101C8000414689B2484680B2FFF734FF002802D0AF
:101C90005FF0FF303FE001AA414689B2484680B27A
:101CA000FFF773FF002802D05FF0FF3033E01FFA28
:101CB00088F8424601A91FFA89F919EB050000F0DE
:101CC000C9FC0100002902D07FF0010023E018EBDD
:101CD0000909C0E7B6B2300A8DF8000030008DF86F
:101CE000010000AB0222DFF820030068417FDFF82B
:101CF00018034068007800F0B9F9002802D05FF0BE
:101D0000FF3008E0DFF80003012180F82510DFF83C
:101D1000F802C784002005B0BDE8F08310B582B09A
:101D20000400DFF8E40290F82400E4B2A04201D1FC
:101D3000002046E0E4B2002C2AD0DFF8CC0290F874
:101D40002500002802D15FF0FF303AE00020FEF7C6
:101D5000CDF90020FFF7DBF8DFF8AC02C08CFEF70E
:101D60001EFD00208DF8000000AB01222321DFF8CA
:101D700098024068007800F079F9DFF88C020121C0
:101D800080F824100120FEF7B1F9FEF78CFA17E075
:101D90000020FEF7ABF9DFF87002007C8DF8000040
:101DA00000AB01222321DFF860024068007800F0D8
:101DB0005DF9DFF85402002180F82410FEF773FA71
:101DC000002016BD7B14AE3E1D5A843F000080BF2C
:101DD0000484000800B04C4554E3853F18FCFFFF25
:101DE000F8B504000D001600F6B2002E00F0C48015
:101DF00041F6E170A4B2844202D3FF20070008E05C
:101E0000A4B2202C02D20120070002E0A4B2600993
:101E10000700EDB2002D01D101200500F6B2292EF8
:101E200002D35FF0FF30EEE07748407D002823D1F9
:101E3000754890F82400002807D00020FFF76EFFB7
:101E40007148012180F8201003E06F48002180F8DC
:101E500020106E48FEF73DFB6D48FEF7AAFB6D486B
:101E6000FEF71AFC6C48FEF78AFC67486649897AD7
:101E700081776A48FEF77DFD0020FEF737F90020E4
:101E8000FEF792F900208DF8000000AB01225E48B9
:101E9000006881785C484068007800F0E7F8002826
:101EA00002D05FF0FF30AEE040208DF8000000ABC4
:101EB000012255480068417C53484068007800F092
:101EC000D5F8002865D18DF800708DF8015000AB71
:101ED00002224D480068817A4B484068007800F043
:101EE000C5F8002855D1052000F062F94648407A2F
:101EF000C00050F007008DF8000000AB01224248FE
:101F00000068C17940484068007800F0AFF80028C8
:101F10003FD120208DF80000F6B2012E03D1002021
:101F20008DF8010010E0F6B2062E03D201208DF8E4
:101F3000010009E0F6B2152E03D202208DF801004F
:101F400002E003208DF801009DF80100800150F0AF
:101F500007008DF8010000AB02222B480068417D8C
:101F600029484068007800F081F8002811D12648FF
:101F700001214175002046E0244A002001000C297F
:101F800004D2885C002804D1491CF8E75FF0FF30D8
:101F900039E01D48FF2101721B48FF2141721A4898
:101FA000FF21C17218484FF6FF71C1811648FF2109
:101FB00081721548FF2101741348012101731248F1
:101FC000807FFEF71EFD1048C08AFEF7A1FA0E487A
:101FD000007EFEF713FB0C48408BFEF783FB0A489C
:101FE000808BFEF7DCFB0848C07FFEF7C8FC064884
:101FF00090F82000002802D00120FFF78FFE024851
:10200000002141750020F2BD0000002016000020D4
:10201000180000201A0000201C0000201F000020D3
:1020200080B500F008F800F01CF801BD80B55648F6
:1020300000F01EFC01BD80B5534800F053FC52482F
:10204000C0695249016050480221C1704E484FF4A6
:10205000106141614C484E4941604B484D49816097
:1020600001BD80B5484800F056FB01BDF8B504003D
:102070000D0016001F0044480021416142484449B8
:10208000416041484068F6B246603F48406807609A
:102090003D484068E4B284603B484068EDB2C560AA
:1020A000394800F054FC002810D13748007B012843
:1020B00003D03548007B1028F7D13348007B102827
:1020C00002D15FF0FF3003E0002001E05FF0FF305D
:1020D000F2BDF8B504000D0016001F00F6B2002E88
:1020E00001D100202CE028480021416126482949DF
:1020F000816025488068F6B24660234880680760A2
:1021000021488068E4B284601F488068EDB2C560F1
:102110001D4800F08CFC002810D11B48007B0128D2
:1021200003D01948007B1028F7D11748007B1028EE
:1021300002D15FF0FF3003E0002001E05FF0FF30EC
:10214000F2BD80B51048124941600F484068D02167
:1021500081600D4800F0ACFD02BD80B5FFF7F1FFD6
:10216000012809D10C480068002805D00A480068F9
:10217000401E09490860F1E707480068002801D1BE
:10218000002000E0012002BD8C000020A08601009C
:1021900054020020640200208C01002001B4009849
:1021A000002803D00098401E0090F8E701B0704767
:1021B00081B080B201281DD30021ADF80210BDF816
:1021C00002104FF4FA72914212D20021ADF80010C1
:1021D000BDF80010052905D2BDF80010491CADF866
:1021E0000010F5E7BDF80210491CADF80210E6E753
:1021F000401EDEE701B07047FF2212EAD05C1DBF2F
:1022000012EAD153944593422BE09C44D30780EAD1
:1022100001021A4043EA002043EA0121A1FB0030F9
:10222000410038BF40007CF17F010BDBFE294ADA18
:102230005B0842EAC15153EA006373F1004C51EB71
:1022400010207047D1F1080CDCF120012FDB5B0876
:1022500010FA01F10B4373F1004120FA0CF05041E8
:10226000704794451CBF02EAD153934280EA0102B1
:1022700002F000421DD0400019D0490017D05BB9D0
:10228000634514D00902B1FA81F39940BCEB030C09
:10229000C00140F00040C1E70002B0FA80FC10FA33
:1022A0000CF0B3EB0C0CC90141F00041B6E7100093
:1022B000704740000AD0490008D010F1807F94BFD9
:1022C00011F1807F02E042F0FF407047D043704739
:1022D000002848BF40427047002840F10980F4467A
:1022E000404200F005F850F000406047002800BF71
:1022F0000AD0B0FA80F18840D1F19D01C9050206EB
:1023000072F1004241EB1020704710B450F8041BEA
:1023100081B102681218001D50F8043BDC0744BF6D
:10232000A9F10104E31852F8044B43F8044B091FC8
:10233000F9D1EBE710BC704710B5FF2313EAD05476
:102340001DBF13EAD1529C429A4239E0A41ADA071F
:1023500080EA0103134042EA012142EA0020421AC6
:102360003CBF641E01EB4202090AB2FBF1FE01FB15
:102370001E221202B2FBF1F001FB10226EF30F20BD
:102380001202B2FBF1FE4EEA00207F3406DDFE2C85
:1023900024DA53EA500050EBC45010BDD4F10204CB
:1023A00001FB1E2240F08071192C1DDC21FA04F083
:1023B000C4F12004A140114371F10042584110BD05
:1023C0009C421ABF03EAD1529A420FE080EA010E02
:1023D0000EF00043400004D0490016D143F0FF4006
:1023E00010BD490008BFD343180010BD9C4205D161
:1023F000D21AF7D001F00041484010BD4A0212BF86
:102400000846484000F0004010BD4AB90902B1FA40
:1024100081F2914044B1A418C00140F000409EE711
:10242000C90141F0004152420002B0FA80F4A040DC
:10243000141B94E740EA010C5FEA4C0C07D0884279
:1024400005D14FEA400C1CF1807F98BF8042704755
:1024500090EA010F44BF81F0004101F0E3B900BFF1
:10246000421A3CBF801A89184FF0004CC0F3C75283
:10247000FF2A24D0C1F3C75313B3D21AD2F11903E0
:1024800027DD4CEA01214CFA03F321EA0303D14092
:10249000C20D4CEA0020401834BF20EA0C004CEA80
:1024A0005000D20553EA006373EB0C0C52EB102082
:1024B000420012F1807F38BF7047C00DC0057047E1
:1024C000490212BF9A4200EB5120F8E7D2F11703FC
:1024D000D9D570474FF0807C1CEB400F94BF1CEBAC
:1024E000410F05E040EA010C5FEA4C0C01D2884242
:1024F000704718BF8142704713F0004C03D55B4210
:10250000524263F100039CEA210C00F0178010B5E1
:10251000644603D34942404261F1000100F00EF8E5
:10252000640004D34942404261F10001244203D5D2
:102530005B42524263F1000310BD00001B4213D105
:10254000094236D12AB18446B0FBF2F002FB10C238
:10255000704701F0D3B9FCD30022002370470B0071
:102560000200002100207047904271EB030CF6D36B
:1025700070B5B1FA81F4B3FA83F52C1BA340C4F112
:10258000200532FA05F63343A2405FF00046E640EC
:1025900002E05B085FEA3202841A71EB030524BF94
:1025A000204629467641F4D302000B00300000217A
:1025B00070BD012ACFD970B5140C20D0B1FA81F4C6
:1025C000B2FA82F5C4F120046419B4F12006D6D31E
:1025D000B2405FF00044F440002502E052085FEA98
:1025E0003303C61A71EB020E24BF304671466441B4
:1025F0006D41F3D302000B002000290070BD0C4692
:10260000B1FBF2F102FB11452D0445EA1045B5FB83
:10261000F2F402FB145580B240EA0545B5FBF2F036
:1026200002FB105240EA044070BD50F8041B61B137
:1026300050F8042BD30744BFA9F101039A180023D3
:1026400042F8043B091FFAD1EFE77047002201F07E
:1026500057B9100E0300002013F0030F09D0521ECB
:1026600022BF13F8010B11F801CBB0EB0C00F3D033
:102670007047121F22BF53F8040B51F804CB60457A
:10268000F7D0121D0AD200BA9CFA8CFCB0EB0C00F9
:1026900038BF6FF0000088BF01207047521E22BF74
:1026A00013F8010B11F801CBB0EB0C00F6D0521C63
:1026B00008BF10467047110F40B2002809D540B23C
:1026C00010F00F02DFF8583DD2180B0102F8043C5D
:1026D00004E040B2DFF84C2D0B018354704710B575
:1026E0000400B4F1807F01D3012013E02002000A2E
:1026F000401EDFF8341D08600F215FF0FF30FFF748
:10270000DBFFDFF8280D00210160DFF8240D072131
:102710000160002010BD10B50400207B012806D008
:10272000207B102803D0207B002840F09F80E07899
:10273000012803D110202073012098E02078DFF8D1
:10274000F41C51F8200000884FF6FE7108402178F3
:10275000DFF8E02C52F821100880207801F056F9BB
:10276000207801F002F9E078022803D1617820781E
:1027700001F003FA207801F0DDF8207801F010F97B
:102780002078DFF8B01C51F82000008850F00100DC
:102790002178DFF8A02C52F821100880E169207818
:1027A000DFF8902C52F8200001F038FB6069C0027D
:1027B0000DD52078DFF87C1C51F82000008850F0FF
:1027C00040002178DFF86C2C52F821100880207D21
:1027D000C0072DD52078DFF85C1C51F820008089D7
:1027E00050F001002178DFF84C2C52F8211088813C
:1027F0002078DFF8401C51F8200080894FF60171E5
:1028000008402178DFF82C2C52F82110888120789C
:10281000DFF8201C51F820008089217DC9B211F019
:10282000FE0108432178DFF80C2C52F82110888132
:10283000E078022804D162696178207801F00EF90D
:102840006169207801F0ADF901202073DFF8000DF7
:1028500000684FF47A71B0FBF1F0FFF740FF002100
:102860005FF0FF30FFF728FF002000E0012010BDDF
:1028700010B50400207B012805D0207B102802D051
:10288000207B00282CD1207801F0C0F82078DFF8D8
:10289000A41B51F8200000884FF6FE7108402178F3
:1028A000DFF8902B52F821100880207801F05DF8B5
:1028B000E078022803D16178207801F05EF961693F
:1028C000207801F02AFA00202073002020615FF0B8
:1028D000FF30A061DFF8580B00210160002000E00C
:1028E000012010BD0100DFF86C0CDFF86C2C0260D9
:1028F000DFF8600C00228280DFF8580C4BF6FF7284
:10290000C280DFF8500C00220281DFF8480C4FF43F
:1029100080624281DFF83C0C4FF4804282810320C8
:102920004870002088700220C87000204860002095
:1029300088600020087300200861002048615FF073
:10294000FF308861DFF80C0CC8610020704710B5BB
:102950000400207B800705D4207B032802D0207B45
:10296000052801D1012061E0207B002801D1012050
:102970005CE0207B102801D1012057E00220207369
:102980006069C00121D40B20A0612078DFF8A41A6F
:1029900051F82000008B10F00200C0B2002811D0C6
:1029A000A06901280ED0A06910F1010F0AD0A0691A
:1029B000012803D0A06910F1010FE6D1200000F03A
:1029C000FAFC33E05FF0FF30A0616069C00302D41D
:1029D000A078012803D10121200000F08CFE032003
:1029E0002073A078002811D12078DFF8481A51F818
:1029F000200000884FF4807108432178DFF8342AE2
:102A000052F8211008801F20A061FFE72078DFF82E
:102A1000241A51F8200080884FF40071084321786F
:102A2000DFF8102A52F821108880002010BD10B560
:102A30000400207B800705D4207B032802D0207B64
:102A4000052801D1012032E1207B002801D101209D
:102A50002DE1207B102801D1012028E102202073E4
:102A60006069C00121D40B20A0612078DFF8881DA7
:102A700051F82000008B10F00200C0B2002811D0E5
:102A8000A06901280ED0A06910F1010F0AD0A06939
:102A9000012803D0A06910F1010FE6D1200000F059
:102AA0008AFC04E15FF0FF30A061E078022809D1E0
:102AB000A0684068012805D1606950F40010606189
:102AC0000120E0706069C00300F1C380A078002895
:102AD00040F0BF802078DFF8201D51F820000088EA
:102AE0004FF4807108432178DFF80C2D52F8211043
:102AF00008801F20A0612078DFF8FC1C51F820001E
:102B0000808A10F00100C0B2002811D1A06901280C
:102B10000ED0A06910F1010F0AD0A069012803D0DE
:102B2000A06910F1010FE6D1200000F044FCBEE0E6
:102B30005FF0FF30A061E0698089B0F5804F2BD154
:102B40002078DFF8B41C51F82000A168097A11F050
:102B5000FE0101820420A0612078DFF89C1C51F85E
:102B60002000808A10F00200C0B2002811D1A069B4
:102B700001280ED0A06910F1010F0AD0A069012828
:102B800003D0A06910F1010FE6D1200000F013FC82
:102B90008DE05FF0FF30A0612078DFF85C1C51F819
:102BA0002000808A2178DFF8502C52F82110098B00
:102BB0000322A2612078DFF8401C51F82000808AAF
:102BC00010F08000C0B2002811D1A06901280ED0F9
:102BD000A06910F1010F0AD0A069012803D0A069F3
:102BE00010F1010FE6D1200000F0E5FB5FE05FF09F
:102BF000FF30A061606980032AD42078DFF8F81BD9
:102C000051F82000A168C968C9B201820320A061FF
:102C10002078DFF8E41B51F82000808A10F0800053
:102C2000C0B2002811D1A06901280ED0A06910F10E
:102C3000010F0AD0A069012803D0A06910F1010F8B
:102C4000E6D1200000F0B7FB31E05FF0FF30A0617B
:102C500006E0E078022803D10221200000F04BFDBD
:102C600005202073A078002811D12078DFF8881B78
:102C700051F8200000884FF4807108432178DFF874
:102C8000782B52F8211008801F20A061FFE72078E0
:102C9000DFF8641B51F8200080884FF4007108436E
:102CA0002178DFF8542B52F821108880002010BDC5
:102CB00010B582B004004FF6FF7000900220207320
:102CC0002078DFF8341B51F8200080884FF6FF6130
:102CD00008402178DFF8202B52F8211088802078D6
:102CE000DFF8141B51F8200000884FF6FE710840F1
:102CF0002178DFF8042B52F8211008802078DFF8C3
:102D0000F81A51F82000008850F001002178DFF80F
:102D1000E82A52F8211008802078DFF8DC1A51F8F0
:102D2000200000884FF4807108432178DFF8C82A1A
:102D300052F8211008801F20A0612078DFF8B81A0F
:102D400051F82000808A10F00100C0B2002811D193
:102D5000A06901280ED0A06910F1010F0AD0A06966
:102D6000012803D0A06910F1010FE6D1200000F086
:102D700022FB80E05FF0FF30A0612078DFF8781A56
:102D800051F820006168097A11F0FE010182207873
:102D9000DFF8641A51F82000808A10F00200C0B2F7
:102DA000002804D10098411E00910028EFD100981E
:102DB000002801D101205EE02078DFF83C1A51F8AC
:102DC00020004FF6FF3181822078DFF82C1A51F86D
:102DD000200000884FF4007108432178DFF8182A9A
:102DE00052F8211008802078DFF80C1A51F82000E2
:102DF000008B10F00200C0B20028F4D12078DFF878
:102E0000F81951F8200000884FF6FE71084021782B
:102E1000DFF8E42952F8211008802078DFF8D8196B
:102E200051F82000008850F001002178DFF8C8290F
:102E300052F8211008802078DFF8BC1951F82000E2
:102E4000008850F480602178DFF8AC2952F8211016
:102E500008802078DFF8A01951F8200080884FF40E
:102E6000807108432178DFF8902952F8211088807A
:102E700001202073002016BD10B582B00400002090
:102E8000ADF800002078DFF8AC1551F82000808AFA
:102E900010F0DF00ADF80000A07800281AD1BDF8CE
:102EA0000000C00703D5200000F092FA13E0BDF83F
:102EB0000000800703D5200000F0BEFA0BE0BDF84B
:102EC0000000400606D5207B0A2803D1200000F030
:102ED00045FB00E0002016BD10B50400A0780128D5
:102EE00012D16068406800280ED1207B012802D0F2
:102EF000207B062808D12078DFF8FC1851F8200044
:102F00004FF2FF01818258E02078DFF8EC1851F889
:102F10002000808A10F470602061102020732078D7
:102F2000DFF8D41851F820004FF2FF0181822069A8
:102F3000C0051BD52078DFF8C01851F820000088A4
:102F400050F400402178DFF8B02852F821100880B2
:102F50002078DFF8A41851F8200000884004400CC5
:102F60002178DFF8942852F8211008802069800524
:102F70001BD52078DFF8801851F82000008850F425
:102F800000402178DFF8702852F82110088020785E
:102F9000DFF8641851F8200000884004400C2178C4
:102FA000DFF8542852F821100880206900052069B4
:102FB00040052169207800F0C2FF002010BD10B547
:102FC00004005FF0FF30A0612078DFF8301851F87E
:102FD000200000682178DFF8282852F821100842E4
:102FE00000F08E80606800214160A078002840F0E9
:102FF00083806069400400F17F802078DFF834141A
:1030000051F8200080884FF2FF7108402178DFF8E6
:10301000242452F8211088800520A0612078DFF850
:10302000141451F82000808A10F00400C0B2002867
:1030300011D1A06901280ED0A06910F1010F0AD0AA
:10304000A069012803D0A06910F1010FE6D120008A
:1030500000F0B1F990E05FF0FF30A0612078DFF878
:10306000D41351F8200000884FF4007108432178F0
:10307000DFF8C02352F8211008800B20A0612078CF
:10308000DFF8B01351F82000008B10F00200C0B23E
:10309000002811D0A06901280ED0A06910F1010FFD
:1030A0000AD0A069012803D0A06910F1010FE6D170
:1030B000200000F080F95FE05FF0FF30A061207831
:1030C000DFF8401751F820000068400840002178E0
:1030D000DFF8302752F8211008602078D54951F8E0
:1030E000200080884FF6FF5108402178D14A52F8DD
:1030F0002110888001202073200000F01EFF23E0B3
:103100002078DFF8F81651F8200000682178DFF801
:10311000F82652F82110084216D12078DFF8DC1684
:1031200051F8200000682178DFF8E02652F82110DD
:10313000084209D0102020732078DFF8C81651F813
:1031400020004068616848602078DFF8B41651F8C4
:1031500020002178DFF8B02652F8211008432178AA
:10316000DFF8A82652F8211008432178DFF88C26D2
:1031700052F821104860002010BD10B504005FF027
:10318000FF30A0612078DFF8741651F82000006845
:103190002178DFF87C2652F82110084200F0848064
:1031A000A06800214160A078002840F0A1806069FB
:1031B000000475D4606900023BD420789D4951F821
:1031C000200000884FF4007108432178994A52F892
:1031D000211008802078974951F8200080884FF20C
:1031E000FF7108402178934A52F8211088800B2003
:1031F000A06120788F4951F82000008B10F0020068
:10320000C0B2002811D0A06901280ED0A06910F129
:10321000010F0AD0A069012803D0A06910F1010FA5
:10322000E7D1200000F0C7F87AE05FF0FF30A0613E
:103230000CE020787F4951F8200080884FF2FF7120
:10324000084021787B4A52F8211088802078DFF8E6
:10325000C41551F820000068400840002178DFF8CC
:10326000B42552F8211008602078724951F82000E6
:1032700080884FF6FF51084021786E4A52F821109D
:10328000888020786B4951F8200080884EF6FF71C5
:1032900008402178674A52F8211088800120207365
:1032A000200000F04BFE23E02078DFF8501551F8A5
:1032B000200000682178DFF8602552F821100842CC
:1032C00016D12078DFF8341551F8200000682178F5
:1032D000DFF8482552F82110084209D01020207349
:1032E0002078DFF8301551F820004068A168486068
:1032F0002078DFF81C1551F820002178DFF8182518
:1033000052F8211008432178DFF8102552F82110D7
:1033100008432178DFF8E42452F8211048600020A7
:1033200010BD10B5002400200400022C42D2DFF8AA
:10333000F00450F8240000283AD0DFF8E40450F8F4
:1033400024008069002820D1DFF8D40450F824003C
:103350005FF0FF318161DFF8C80450F824001021CC
:103360000173DFF8BC0450F82400006900281FD165
:10337000DFF8AC0450F82400FF210161DFF8A0045D
:1033800050F8240000F0CAFD12E0DFF8940450F871
:103390002400806910F1010F0AD0DFF8840450F88E
:1033A00024008069401EDFF8781451F824108861E9
:1033B000641CBAE710BD10B504005FF0FF30A061D7
:1033C00010202073FF202061200000F0A7FD10BD19
:1033D00001005FF0FF308861C8698089B0F5804FD7
:1033E0001CD1087B05280CD10878124A52F820001D
:1033F0008A68926852F00102D2B202820A200873EF
:103400000AE008780B4A52F820004A68127A12F053
:10341000FE020282062008730420886100207047A3
:1034200018ED00E000E400E014E000E018E000E047
:1034300010E000E04401002010B50400E07802280C
:1034400003D05FF0FF30A06112E0207B062804D19A
:1034500060684068401CA0610AE0207B0A2804D113
:10346000A0684068401CA06102E05FF0FF30A061EE
:10347000207B0A2806D1E078012803D10221200010
:1034800000F039F92078DFF8701351F82000808AB5
:103490002178DFF8642352F82110098B227B0A2A55
:1034A0001DD1A0684068012819D12078D24951F86F
:1034B000200000884FF6FF3108402178CE4A52F8AC
:1034C000211008802078CC4951F8200000884FF462
:1034D000007108432178C84A52F8211008806069B9
:1034E000C00332D4207B06282BD16069800328D406
:1034F0002078C14951F820006168C968C9B20182C9
:103500000320A0612078BC4951F82000808A10F087
:103510008000C0B2002811D1A06901280ED0A06996
:1035200010F1010F0AD0A069012803D0A06910F1A1
:10353000010FE7D12000FFF73EFF07E05FF0FF300B
:10354000A0610321200000F0D6F8002010BD00008B
:103550009401002024020020A086010010B5040080
:10356000E078012840F0C580A068406802282CD18E
:103570002078A14951F82000008AA16809680870E4
:1035800020789D4951F8200000884FF6FF3108400F
:103590002178994A52F8211008802078964951F8EC
:1035A000200000884FF4007108432178924A52F8B5
:1035B00021100880A0684068401EA1684860A0688B
:1035C0000068401CA168086023E0A06840680128EA
:1035D0000DD12078884951F82000008AA168096837
:1035E0000870A0684068401EA168486011E020781B
:1035F000814951F82000008AA16809680870A06814
:103600000068401CA1680860A0684068401EA1686E
:103610004860A068406800286BD12078764951F84E
:10362000200080884FF6FF5108402178724A52F8F6
:10363000211088802078704951F8200080884FF64A
:10364000FF31084021786C4A52F821108880207898
:10365000694951F82000808A2178674A52F8211080
:10366000098A6269920205D5606930F400106061D0
:103670000220E0700B20A06120785F4951F8200003
:10368000008B10F00200C0B2002811D0A069012800
:103690000ED0A06910F1010F0AD0A069012803D053
:1036A000A06910F1010FE7D12000FFF784FE21E0AF
:1036B0005FF0FF30A06120784F4951F8200000886A
:1036C00050F4806021784C4A52F82110088020780C
:1036D000494951F8200000884FF2FF7108402178D5
:1036E000454A52F82110088001202073200000F084
:1036F00025FC002010BD38B504000D00E07801283D
:1037000002D002280ED073E020783B4951F8200007
:10371000808850F480602178374A52F821108880E0
:10372000002068E02078344951F8200080884FF666
:10373000FF5108402178304A52F8211088802078C3
:103740002D4951F82000808850F4006021782A4AE1
:1037500052F821108880207B062802D0EDB2012D7E
:103760001ED162696168207800F0BFF92078224993
:1037700051F8200080884EF6FF71084021781E4ADB
:1037800052F82110888020781E4951F820000068E6
:1037900050F0010021781B4A52F82110086025E002
:1037A000207B0A2802D0EDB2022D1FD16269A168E8
:1037B000207800F0BEF9A07800280BD120780E49BF
:1037C00051F82000808850F4805021780A4A52F83D
:1037D0002110888020780F4951F82000006850F0AF
:1037E000010021780B4A52F821100860002002E005
:1037F00010202073012032BD440100206C01002004
:10380000988500085C010020A0850008A8850008B4
:10381000B085000864010020B8850008C085000854
:103820003C010020431A4FF000423EBF5340C01AF3
:10383000C91800BFD3095FEAD05C13EB400F34BF57
:10384000B3EB410F40E07CEBD1530CD342EA0121B2
:1038500022D8D1EB402009D3400A28BF5FEA5001AB
:1038600040EBCC507047401A15D04002B0FA80F2BD
:10387000521C9040400A4FEA3C23B3EB026384BFE2
:1038800000EB730007E040F400001A16DB07C2F1FA
:103890000102D04018437047182BFCDC31FA03F2C8
:1038A00002FA03F3591A38BF42F00102D2EB40206A
:1038B0003CBF4000ACF1010C5FEACC5CC20572F188
:1038C00000414CEB5020704713EB400F0FD24B00E0
:1038D00009D0ACEBD153022B03DB4902172BDDDD02
:1038E00070479143401A4300D5D10020704713EB35
:1038F000410FD0D36FF0000070471F217047202286
:1039000000B500BF130096469446103928BFA0E8C2
:103910000C50FAD85FEA417C28BF0CC048BF40F881
:10392000042BC90728BF20F8022B48BF00F8012B41
:1039300000BD020210B504000121E4B2DFF87404F6
:1039400050F8240000F0B0FB0021E4B2DFF864047A
:1039500050F8240000F0A8FB0121E4B2DFF8540481
:1039600050F8240000F091FB10BD10B504000121B7
:10397000E4B2DFF8400450F8240000F095FB002189
:10398000E4B2DFF8300450F8240000F08DFB002191
:10399000E4B2DFF8200450F8240000F076FB10BDFC
:1039A00010B582B004000121E4B2DFF80C0450F835
:1039B0002400E4B2DFF8042452F82420104300F07D
:1039C00055FB03208DF802001C208DF80300E4B2A3
:1039D000DFF8EC0330F81400ADF8000000A9E4B201
:1039E000DFF8E00350F8240000F082FBE4B2DFF8D7
:1039F000D80330F81400ADF8000000A9E4B2DFF8F5
:103A0000CC0350F8240000F073FB13BD10B582B056
:103A1000040003208DF8020004208DF80300E4B2B6
:103A2000DFF89C0330F81400ADF8000000A9E4B200
:103A3000DFF8900350F8240000F05AFBE4B2DFF8FE
:103A4000880330F81400ADF8000000A9E4B2DFF8F4
:103A50007C0350F8240000F04BFB13BD70B504004C
:103A60000D0016000121E4B2DFF8640350F82400D1
:103A700000F0EDFADFF85C034FF6FF71C160DFF88C
:103A8000540300210161DFF84C0380214161DFF81C
:103A9000440300218161DFF83C030021C161CD486E
:103AA0004FF440514162CB4800218162E4B2CA48E0
:103AB00050F82400C7490860E80709D5C548102117
:103AC0008160C449E4B2C54850F8240000F06FFC9E
:103AD000A80709D5BF4800218160BE49E4B2C048AB
:103AE00050F8240000F063FC70BD70B504000D00B8
:103AF0001600B84829684160B6486968C160E4B2F8
:103B0000B54850F82400B3490860700403D5B148A3
:103B10002021016202E0AF4800210162AD4810217E
:103B20008160AC49E4B2AD4850F8240000F03FFC9D
:103B300070BD70B504000D001600A64829684160EC
:103B4000A4486968C160E4B2A34850F82400A149C0
:103B50000860300403D59F482021016202E09D489F
:103B6000002101629B48002181609A49E4B29C488F
:103B700050F8240000F01BFC70BD38B504000D00A7
:103B8000E80705D5E4B2954850F8240000F08AFB18
:103B9000A80705D5E4B2924850F8240000F082FB53
:103BA00031BD38B504000D0000F03EFC01208DF859
:103BB0000300E4B28B48205C8DF80000E4B28A4830
:103BC000205C8DF80100E4B28848205C8DF802008A
:103BD00000A800F034FC68021ED4E4B28448205CE3
:103BE0008DF80000E4B28348205C8DF80100E4B257
:103BF0008148205C8DF8020000A800F020FCE4B2AF
:103C00007E4850F8240080884FF480710843E4B265
:103C10007A4951F8241088804FF4E06005423BD087
:103C2000E4B27748205C8DF80000E4B27548205C6F
:103C30008DF80100E4B27448205C8DF8020000A801
:103C400000F0FDFBE8050BD5E4B2644850F8240011
:103C5000006850F00200E4B2604951F82410086096
:103C6000A8050BD5E4B25D4850F82400006850F078
:103C70000400E4B2594951F82410086068050BD5D6
:103C8000E4B2564850F82400006850F00800E4B24E
:103C9000524951F8241008604FF4605005423BD05F
:103CA000E4B25A48205C8DF80000E4B25848205C29
:103CB0008DF80100E4B25748205C8DF8020000A89E
:103CC00000F0BDFB28050BD5E4B2454850F82400B0
:103CD000006850F00200E4B2414951F82410086035
:103CE000E8040BD5E4B23E4850F82400006850F0D8
:103CF0000400E4B23A4951F824100860A8040BD536
:103D0000E4B2374850F82400006850F00800E4B2EC
:103D1000334951F82410086031BD38B504000D0056
:103D200000208DF8010000208DF8020000208DF8A1
:103D30000300E4B22B48205C8DF8000000A800F0DE
:103D40007EFB680207D4E4B22948205C8DF80000AD
:103D500000A800F074FB4FF4E060054207D0E4B225
:103D60002748205C8DF8000000A800F068FB4FF4A5
:103D70006050054207D0E4B22448205C8DF8000072
:103D800000A800F05CFB31BD80B52348FFF774F854
:103D900002BD80B52048FFF79FF8002002BD80B526
:103DA0001D48FFF70CF902BD80B51B48FFF7E5F988
:103DB00002BD000070850008808500088885000825
:103DC000C88500084C010020CC8500085401002063
:103DD00090850008DC010020788500085C01002047
:103DE00064010020FA380008323900085E530008E8
:103DF000FE380008BA53000832540008440100207D
:103E0000522600089A5400084A610008B6260008A5
:103E10000A7900088A8400088C0000202DE9F0430C
:103E200085B004000D005FF0000900260427DFF8CC
:103E3000E080A08881464FF6C07010EA090900A80A
:103E400000F097F8029880463248B8FBF0F0060080
:103E500056EA0909A4F8049020884FF6FE7108403C
:103E600020800020814628682B4988420ED228688D
:103E70004000B8FBF0F00700BFB2042F01D20420CD
:103E8000070057EA0909701C208426E0E8884BF6F1
:103E9000FF71884206D1286803214843B8FBF0F03F
:103EA000070007E0286819214843B8FBF0F0070035
:103EB00057F48047380501D157F0010757F4004007
:103EC00050EA0909B6B24FF4967000FB06F04FF4C1
:103ED0007A7190FBF1F0401C2084A4F81C9020889B
:103EE00050F001002080208881464FF6F53010EA1E
:103EF0000909A8886989084350EA0909A4F80090CB
:103F0000A88929890843208105B0BDE8F083000015
:103F100000127A0040420F00A186010010B5040093
:103F200001202073002020615FF0FF30A061FEF7C8
:103F30007DF8FEF775F8002010BD7047704738B562
:103F400004000D00E4B2084850F8240000884FF443
:103F500000710843E4B2044951F824100880FEF7C8
:103F600065F8FEF75DF831BD44010020574908604F
:103F7000704730B40021002200230024524D2D68E8
:103F800015F00C0529000D00002D04D0042D05D0DE
:103F9000082D06D026E04E4D056025E04C4D05600D
:103FA00022E0494D2D6815F470152A00464D2D6804
:103FB00015F480352B00920C921C002B04D1454D3A
:103FC00005FB02F505600CE03F4D2D68AD0304D5FF
:103FD000404D05FB02F5056003E03D4D05FB02F594
:103FE000056001E03A4D0560374D2D6815F0F0058C
:103FF00029000909384D4D5D2C000568E5404560F4
:10400000314D2D6815F4E0652900090A324D4D5DEA
:104010002C004568E54085602B4D2D6815F46055F2
:104020002900C90A2C4D4D5D2C004568E540C5604E
:10403000254D2D6815F440452900890B274D4D5D10
:104040002C00C568B5FBF4F5056130BC7047C9B2FA
:10405000002905D0224A12680243214B1A6004E06D
:104060001F4A126882431E4B1A607047C9B200296A
:1040700005D01C4A126802431A4B1A6004E0194A20
:1040800012688243174B1A607047C9B2002905D0E5
:10409000154A12680243144B1A6004E0124A12686F
:1040A0008243114B1A607047C9B2002905D00F4AEC
:1040B000126802430D4B1A6004E00C4A12688243F6
:1040C0000A4B1A607047000004100240D8004242B8
:1040D00000127A0000093D0020010020900100201C
:1040E00014100240181002401C1002401010024030
:1040F000F0B500270022002300240025002691F8B7
:1041000003C01CF00F0C674691F803C05FEACC6C4B
:1041100003D591F802C05CEA070791F800C05FEA96
:104120000C6C3AD0D0F800C065465FF0000C6346D6
:10413000082B31D25FF0010C1CFA03FC6446B1F885
:1041400000C014EA0C0C6246A24223D15FEA830C41
:1041500064465FF00F0C1CFA04FC6646B54317FA80
:1041600004FC5CEA050591F803C0BCF1280F06D1F8
:104170005FF0010C1CFA03FCC0F814C00AE091F8CF
:1041800003C0BCF1480F05D15FF0010C1CFA03FC21
:10419000C0F810C05B1CCBE70560B1F800C04FF45D
:1041A000807EF4453FD3D0F804C065465FF0000C34
:1041B0006346082B36D25FF0010C13F1080E1CFA8F
:1041C0000EFC6446B1F800C014EA0C0C6246A24230
:1041D00026D15FEA830C64465FF00F0C1CFA04FCE6
:1041E0006646B54317FA04FC5CEA050591F803C07E
:1041F000BCF1280F07D15FF0010C13F1080E1CFA77
:104200000EFCC0F814C091F803C0BCF1480F07D1F0
:104210005FF0010C13F1080E1CFA0EFCC0F810C080
:104220005B1CC6E74560F0BD0200002093689BB2AE
:104230000B4202D00123180001E000231800C0B295
:10424000704789B20161704789B24161704730B4EB
:1042500000220F2311F00304E4B2A400A3401A00CB
:10426000C9B28B100E4C54F823309343C9B28C1052
:104270000B4D45F82430C9B28B10094C54F823304B
:10428000C0B211F00304E4B2A40010FA04F4234312
:10429000C9B28C10024D45F8243030BC7047000084
:1042A0000800014001684FF6FE72114001600021D4
:1042B000016000214160002181600021C1604B4903
:1042C000884206D14A49096851F00F01484A1160F5
:1042D0006CE04849884206D14549096851F0F0012F
:1042E000434A116062E04449884206D14049096866
:1042F00051F470613E4A116058E04049884206D14D
:104300003B49096851F47041394A11604EE03C491B
:10431000884206D13649096851F47021344A116047
:1043200044E03849884206D13149096851F47001A6
:104330002F4A11603AE03449884206D12C49096875
:1043400051F070612A4A116030E03049884206D14C
:104350002F49096851F00F012D4A116026E02D49BF
:10436000884206D12A49096851F0F001284A1160B3
:104370001CE02949884206D12549096851F4706139
:10438000234A116012E02549884206D12049096874
:1043900051F470411E4A116008E02149884205D15C
:1043A0001B49096851F47021194A1160704710B413
:1043B000002203681A001B4B1A408B680C6A2343C7
:1043C0000C6923434C6923438C692343CC69234301
:1043D0004C6A23438C6A23431A430260CB684360D0
:1043E0000B6883604B68C36010BC704708000240D4
:1043F000040002401C000240300002404400024021
:10440000580002406C000240800002400804024054
:10441000040402401C0402403004024044040240F0
:10442000580402400F80FFFF80B54FF4A06000F0F9
:1044300001F801BD1C4901431C4A11607047F0B4EA
:10444000002300210F22C478002C20D0174C2468B0
:1044500014F4E064D4F5E064240A2300D3F10404E6
:104460002100DA4044788C402300847814402343B0
:104470001B0104780E4D6355047864110D4D01261F
:10448000077817F01F07BE4045F8246009E004785C
:104490006411094D0126077817F01F07BE4045F843
:1044A0002460F0BC704700000000FA050CED00E04D
:1044B00000E400E000E100E080E100E080B5C82316
:1044C000DFF8040C0288DFF8041C40F6F630FDF734
:1044D000A7FB02BD10B586B0040003A8DFF8F01BEF
:1044E0000A68026002A8DFF8EC1B0A68026005A8EF
:1044F000DFF8E41B0A68026004A8DFF8E01B0A6822
:104500000260A4B214F0030003A9405C8DF804001B
:10451000C4F3C10080B203A9405C8DF80500C4F368
:10452000811080B203A9405C8DF80600A4B214F09B
:10453000030002A9405C8DF80000C4F3C10080B202
:1045400002A9405C8DF80100C4F3811080B202A979
:10455000405C8DF8020001AA032140F22640FDF7DD
:10456000C9FA002802D05FF0FF3058E000AA03210A
:1045700040F22A40FDF7BEFA002802D05FF0FF307B
:104580004DE0032205A901A800F0DEFE032204A9E4
:1045900000A800F0D9FE60070BD59DF8040050F08C
:1045A00001008DF804009DF8000050F001008DF826
:1045B0000000A0060BD59DF8050050F001008DF815
:1045C00005009DF8010050F001008DF80100E005A4
:1045D0000BD59DF8060050F001008DF806009DF8FF
:1045E000020050F001008DF8020001AA03214FF4EF
:1045F0008860FDF77FFA002802D05FF0FF300EE000
:1046000000AA032140F23140FDF774FA002802D0DD
:104610005FF0FF3003E0DFF8000D0481002006B0FA
:1046200010BD1FB50400DFF8F00C007A10F0030095
:1046300054F820000190DFF8E00C007A400704D520
:1046400001985FF0FF3148430190DFF8CC0C0089FE
:10465000C0F3C10080B254F820000290DFF8B80C1B
:10466000007A800604D502985FF0FF31484302903B
:10467000DFF8A40C0089C0F3811080B254F8200048
:104680000390DFF8940C0089C00504D503985FF00F
:10469000FF31484303900198DFF8801C81FB000143
:1046A000800F40EA8100891701900298DFF86C1CA6
:1046B00081FB0001800F40EA810089170290039876
:1046C000DFF8581C81FB0001800F40EA8100891748
:1046D0000390019800168DF80000019800148DF8E1
:1046E0000100019800128DF8020001988DF8030076
:1046F00000AA04214FF47470FDF7FCF9002802D0E1
:104700005FF0FF302EE0029800168DF8000002984E
:1047100000148DF80100029800128DF80200029832
:104720008DF8030000AA04214FF47570FDF7E2F93B
:10473000002802D05FF0FF3014E0039800168DF8D7
:104740000000039800148DF80100039800128DF802
:10475000020003988DF8030000AA04214FF476703C
:10476000FDF7C8F904B010BD70B588B0060006A802
:10477000FCF7D7F8BDF818000021C90341EA504101
:10478000C00304000D0000BFDFF88C0B007A10F0AE
:10479000030056F820000090DFF87C0B007A4007F9
:1047A00004D500985FF0FF3148430090DFF8680BB4
:1047B0000089C0F3C10080B256F820000190DFF8F4
:1047C000580B007A800604D501985FF0FF3148430A
:1047D0000190DFF8440B0089C0F3811080B256F8D5
:1047E00020000290DFF8300B0089C00504D5029844
:1047F0005FF0FF3148430290009AD317A4FB0201F7
:1048000004FB031105FB0211800F40EA81008917A8
:104810000090019AD317A4FB020104FB031105FBCE
:104820000211800F40EA810089170190029AD31784
:10483000A4FB020104FB031105FB0211800F40EAF7
:10484000810089170290009800168DF80C000098DE
:1048500000148DF80D00009800128DF80E000098DD
:104860008DF80F00019800168DF8100001980014C3
:104870008DF81100019800128DF8120001988DF842
:104880001300029800168DF81400029800148DF899
:104890001500029800128DF8160002988DF8170086
:1048A00003AA0C214FF42570FDF724F908B070BD60
:1048B00030B585B0040002A8DFF8641A2CC92CC0FA
:1048C0000C390C38A4B2C92C02D35FF0FF3026E0BB
:1048D000C820A4B290FBF4F0401E0500ADB2280A37
:1048E0008DF8000028008DF8010000AA022140F296
:1048F0001620FDF7FFF8002802D05FF0FF300EE031
:1049000002AA0C2140F6C120FDF7F4F8002802D0DD
:104910005FF0FF3003E0DFF8000A8481002005B07B
:1049200030BD0100DFF8F009808908800020704761
:104930002DE9FC4104000D000720044204D040F2A0
:104940004160ADB2854202D35FF0FF30B9E0ADB255
:104950002800FDF7CBFCDFF8CC19FDF7EDFC0600D5
:1049600001A8FBF726FE9DF80400022806D00428C3
:1049700015D0082824D0102833D043E05FF08D40B4
:104980003100FDF739FC00F0EBFC0700DFF8980977
:104990003100FDF731FC00F0E3FC804635E05FF0CC
:1049A0008C403100FDF728FC00F0DAFC0700DFF84E
:1049B0007C093100FDF720FC00F0D2FC804624E0A9
:1049C0005FF08B403100FDF717FC00F0C9FC0700D9
:1049D000DFF85C093100FDF70FFC00F0C1FC8046F8
:1049E00013E05FF08A403100FDF706FC00F0B8FCF0
:1049F0000700DFF840093100FDF7FEFB00F0B0FCD6
:104A0000804602E05FF0FF305BE0BFB2380A8DF80D
:104A1000000038008DF801001FFA88F85FEA1820BE
:104A20008DF8020040468DF80300E00716D500AA75
:104A300002214FF4EA70FDF75DF8002802D05FF024
:104A4000FF303EE00DF1020202214FF49270FDF7BB
:104A500051F8002802D05FF0FF3032E0A00716D5F1
:104A600000AA02214FF4EC70FDF744F8002802D0B0
:104A70005FF0FF3025E00DF1020202214FF4947047
:104A8000FDF738F8002802D05FF0FF3019E060072A
:104A900016D500AA02214FF4EE70FDF72BF800287E
:104AA00002D05FF0FF300CE00DF1020202214FF462
:104AB0009670FDF71FF8002802D05FF0FF3000E08D
:104AC0000020BDE8F68110B582B0040000208DF80A
:104AD0000000E00705D59DF8000050F030008DF88B
:104AE0000000A00705D59DF8000050F00C008DF8DF
:104AF0000000600705D59DF8000050F003008DF818
:104B0000000000AA01214FF4A470FCF7F3FF16BDCA
:104B100010B582B00400E4B2012C02D201200400DE
:104B200004E0E4B2052C01D304200400601E8DF8DB
:104B3000000000AA012140F24F10FCF7DBFF16BD78
:104B400038B50400A4B2052094FBF0F00500ADB226
:104B5000280A8DF8000028008DF8010000AA022123
:104B60004FF4EF70FCF7C6FF32BD38B50400A4B2B5
:104B7000052094FBF0F00500ADB2280A8DF8000086
:104B800028008DF8010000AA02214FF4ED70FCF717
:104B9000B1FF32BD70B582B004000D004FF47A70E1
:104BA00094FBF0F0ADB205FB00F630168DF8000076
:104BB00030148DF8010030128DF8020030008DF8AD
:104BC000030000AA04214FF4AE70FCF793FF76BDFA
:104BD00010B582B00400A4B2052094FBF0F4A4B296
:104BE000200A8DF8000020008DF8010000AA0221A3
:104BF0004FF4AD70FCF77EFF16BD10B582B0040017
:104C0000A4B2052094FBF0F4A4B2200A8DF80000B1
:104C100020008DF8010000AA02214FF4AC70FCF7CF
:104C200069FF16BD10B582B00400002C02D15FF000
:104C3000FF301AE000AA04214FF45870FCF7A5FFDA
:104C4000002802D05FF0FF300FE09DF800009DF8D3
:104C50000110090451EA00609DF8021050EA012099
:104C60009DF8031008432060002016BD10B582B0E7
:104C70000400200E8DF80000200C8DF80100200AA1
:104C80008DF8020020008DF8030000AA04214FF4E3
:104C90005870FCF72FFF16BD10B582B00400002C31
:104CA00002D15FF0FF301CE000AA04214FF47170C4
:104CB000FCF76BFF002802D05FF0FF3011E09DF899
:104CC00000009DF80110090451EA00609DF80210EF
:104CD00050EA01209DF80310084314214843206046
:104CE000002016BD10B582B004001420B4FBF0F40F
:104CF000200E8DF80000200C8DF80100200A8DF8A0
:104D0000020020008DF8030000AA04214FF4717006
:104D1000FCF7F0FE16BD10B584B0040002208DF83B
:104D20000000CA208DF80100E3208DF80200092060
:104D30008DF8030000AA04216820FCF7DBFEA32005
:104D40008DF80000600609D5C0208DF80100C8204C
:104D50008DF80200C2208DF8030008E0A3208DF832
:104D60000100A3208DF80200A3208DF803004FF46A
:104D7000C070044209D0C4208DF80400CC208DF806
:104D80000500C6208DF8060008E0A3208DF8040079
:104D9000A3208DF80500A3208DF80600A3208DF830
:104DA0000700A3208DF80800A3208DF8090000AAB1
:104DB0000A2140F6A720FCF79DFE0320044203D001
:104DC00020208DF8000002E0D8208DF8000000AA15
:104DD000012140F6B620FCF78DFEA00603D5012088
:104DE00000F0B1F802E0002000F0ADF84FF4C07020
:104DF000044220D0E0050CD5B2208DF800008B20B5
:104E00008DF80100B6208DF802009B208DF803007C
:104E10000BE0B0208DF8000080208DF80100B42058
:104E20008DF8020090208DF8030000AA042140F6BE
:104E3000A220FCF75FFEE00725D5F8208DF80000E2
:104E400000AA01214FF40B60FCF754FEFA21072061
:104E5000FFF76EFD0720FFF736FE0120FFF758FE33
:104E60006420FFF76DFE4FF4FA70FFF77EFEC82155
:104E7000DFF8A804FFF78EFE2820FFF7A9FE0A201E
:104E8000FFF7BBFE08E0D8208DF8000000AA012142
:104E90004FF40B60FCF72EFEA00703D5D9208DF848
:104EA000000002E0D8208DF8000000AA012140F2A5
:104EB0003D70FCF71FFE600703D5012000F066F887
:104EC00002E0002000F062F8E00603D5012000F0C7
:104ED0007EF802E0002000F07AF8DFF83C0454F09D
:104EE00008014181FBF7DFF9DFF82C040021817311
:104EF000600606D5DFF82004807B801DDFF81814DB
:104F000088734FF4C070044206D0DFF80C04807B35
:104F1000801DDFF8041488731420044206D0DFF8E3
:104F2000F803807B1030DFF8F0138873032004420D
:104F300006D0DFF8E403807B001DDFF8DC13887304
:104F4000002004B010BD30B587B00400E4B2002CDE
:104F50000DD003A8DFF8E0132CC92CC00C390C3895
:104F600003AA09214FF49760FCF7C4FD0CE000A8E8
:104F7000DFF8C8132CC92CC00C390C3800AA092141
:104F80004FF49760FCF7B6FD07B030BD10B582B0A6
:104F90000400E4B2002C0CD0C0208DF80000C22028
:104FA0008DF80100C4208DF80200C6208DF80300A2
:104FB00004E004228B2100A800F0F4F900AA0421E7
:104FC00040F69820FCF796FDFBF76DF916BD10B57D
:104FD00082B00400E4B2002C0CD020208DF8000038
:104FE00028208DF8010030208DF8020038208DF83F
:104FF000030004E00422A32100A800F0D3F900AAD2
:10500000042140F69E20FCF775FDFBF74CF916BD18
:105010002DE9F0410400E07810F0C0000600E078CF
:1050200010F03F0005006078C00715D5EDB2E80824
:105030000700EDB2082095FBF0F101FB1051481C70
:105040008046B5480068002806D04146C9B23800FD
:10505000C0B2B14A126890476078000708D5AE48E0
:105060004068002804D0F6B2B009AB4949688847C7
:105070000020BDE8F08130B587B0040003A8B04936
:105080002CC92CC00C390C3800A8AE492CC92CC036
:105090000C390C38E4B22000012808D002280DD1C8
:1050A00003AA0B2140F68220FCF724FD08E000AAA9
:1050B0000B2140F68220FCF71DFD01E05FF0FF3080
:1050C00007B030BD00000000C284000888640008FA
:1050D000D0850008D4850008D8850008DC85000844
:1050E0002DE9F04F8DB004000D0016001F00DDF813
:1050F0005880DDF85C905FF0000B0020A8F80000FD
:105100004A4600A98448807B80B2FBF78DFE0028C8
:1051100002D05FF0FF30F2E07F48807A142108422D
:105120006ED09DF800009DF80110090451EA00605E
:105130009DF8021050EA01209DF8031008433060EA
:105140009DF804009DF80510090451EA00609DF8DF
:10515000061050EA01209DF80710084370609DF882
:1051600008009DF80910090451EA00609DF80A1032
:1051700050EA01209DF80B100843B0609DF80C0028
:105180009DF80D10090451EA00609DF80E1050EAD8
:1051900001209DF80F100843F0601BF1100B3068E0
:1051A00000140890706800140990B06800140A9008
:1051B000F06800140B9008980899099A099B5A43C3
:1051C00001FB00200A990A9A02FB01000B990B9A35
:1051D00002FB01008246BAF1706F02DBBAF1885F10
:1051E00007DDFBF760F80020A8F800005FF0FF3053
:1051F00085E0B8F800004FF480710843A8F800007B
:105200004548807A400633D55FFA8BFB00A81BF82F
:1052100000005FFA8BFB00A91BEB0101497851EA02
:10522000002028805FFA8BFB00A81BEB0000807831
:105230005FFA8BFB00A91BEB0101C97851EA002042
:1052400068805FFA8BFB00A81BEB000000795FFA17
:105250008BFB00A91BEB0101497951EA0020A880D2
:105260001BF1060BB8F8000050F00800A8F8000089
:10527000294840894FF4C071084233D05FFA8BFB54
:1052800000A81BF800005FFA8BFB00A91BEB0101D3
:10529000497851EA002020805FFA8BFB00A81BEBC5
:1052A000000080785FFA8BFB00A91BEB0101C97835
:1052B00051EA002060805FFA8BFB00A81BEB000026
:1052C00000795FFA8BFB00A91BEB0101497951EAD8
:1052D0000020A0801BF1060BB8F8000050F0700011
:1052E000A8F800000C48807A0321084206D05FFA33
:1052F0008BFB00A81BEB0000FFF78AFE00200DB01F
:10530000BDE8F08F010004480160002070470100F3
:1053100001484160002070473402002009E3CA02BE
:105320002885000800004843000040460000C045B2
:10533000000040450000C044348500084085000856
:105340004C8500085885000870B504000D00160053
:1053500032002900200000F031F8200070BD00006C
:105360004100090E7F3915D4D1F11F0114D440003A
:1053700007D2C00140F00040C84048BF6FF0004075
:105380007047C00140F00040C8404CBF4FF00040A3
:10539000404270470020704700424FF0004058BF25
:1053A000C043704770B504000D0016002A0031009C
:1053B000200000F03FF8200070BD000062B38B07B2
:1053C00008D0521E11F8013B00F8013B00F0248088
:1053D0008B07F6D1830740F0208000BF103A07D337
:1053E00030B4B1E83810103AA0E83810F9D230BC27
:1053F000530724BFB1E80810A0E8081044BF51F8D3
:10540000043B40F8043BD20724BF31F8022B20F8BC
:10541000022B44BF0B7803707047083A07D3B1E8FA
:105420000810083A40F8043B40F804CBF7D2530781
:10543000E4E7000062F30F2262F31F42401810F00D
:10544000030308D0C91A1FD3DB0748BF00F8012D9A
:1054500028BF20F8022D130030B414461546103929
:1054600028BF20E93C00FAD8490728BF20E90C00F2
:1054700048BF40F8042D890028BF20F8022D48BFFE
:1054800000F8012D30BC7047C91818BF00F8012D75
:10549000CB0728BF00F8012D7047010110B50400AB
:1054A000A4B2002C06D1DFF8D00B006801210182E4
:1054B000002008E0DFF8C40B006800688047DFF8D0
:1054C000B80B00680A3010BD80B5DFF8B40B407827
:1054D000DFF8A41B0968C97888421AD3DFF8980B53
:1054E00000688078002814D1DFF88C0B0068808871
:1054F00000280ED1DFF8800B0068DFF87C1B0968FC
:10550000C9788172DFF8740B00684068804700201A
:1055100000E0022002BD10B50400A4B2002C06D1A8
:10552000DFF8540B006801210182002008E0DFF859
:105530004C0B006880688047DFF83C0B00680C303B
:1055400010BD10B5DFF8300B0068C178DFF8280B0C
:1055500000684079DFF8B02B126892699047040028
:10556000DFF8140B0068807A00282AD0E4B2002CFF
:105570000BD1DFF8040B00680079002805D1DFF8B3
:10558000F80A00688078002801D002201AE0E4B20E
:10559000002C16D1DFF8E40A0068C0688047DFF805
:1055A000D80A0068DFF8D01A09684979C172DFF8B3
:1055B000C80A0068DFF8C01A0968C97801730020BA
:1055C00000E0022010BD10B50400A4B2002C06D1EA
:1055D000DFF8A40A00680221018200207FE0DFF8E2
:1055E0002C0B00210180DFF8900A006800787F21F1
:1055F00008422AD1DFF8800A0068407A810608D57F
:10560000DFF8081B097851F00201DFF8002B117058
:1056100007E0DFF8F81A097811F0FD01DFF8EC2A4D
:105620001170410608D5DFF8E41A097851F001013C
:10563000DFF8D82A11704BE0DFF8D01A097811F0A2
:10564000FE01DFF8C82A117042E0DFF82C0A00687A
:10565000007810F07F00012802D1DFF8B00A3EE0A8
:10566000DFF8140A0068007810F07F0002282DD1BE
:10567000DFF8041A0968497911F00F0210000A06D0
:1056800011D5C0B2DFF8882A52F8202012F030027B
:10569000102A1DD1DFF8742A127852F00102DFF8C7
:1056A0006C3A1A7014E0C0B2DFF8642A52F8202075
:1056B00012F44052B2F5805F0AD1DFF8502A127816
:1056C00052F00102DFF8443A1A7001E0002006E0CF
:1056D000DFF8A809006800698047DFF8300A10BDCC
:1056E0002DE9F843DFF890090068007810F07F0496
:1056F000002C0BD1DFF880090068407A10F0DF0041
:10570000DFF874190968487200209EE0022C40F00E
:105710009B80DFF8640900684088002805D1DFF825
:10572000580900680079002801D002208DE0DFF8D8
:1057300050090600DFF8400900684079804638F0DB
:10574000800081464F46DFF8300900684079000646
:1057500007D5DFF8BC0950F8270010F0300005002D
:1057600006E0DFF8AC0950F8270010F440500500BF
:105770003078814507D2002D05D0DFF8FC0800689D
:10578000807A002801D102205FE04046000611D552
:10579000DFF87C0950F8270010F0300010284CD1B9
:1057A0003800C0B200F089FD30213800C0B200F0EE
:1057B000E4FC42E0DFF8580950F8270010F44050AC
:1057C000B0F5805F39D1002F1ED1DFF8480990F87D
:1057D0002C1089B23800C0B200F0D3FDDFF83019C8
:1057E00051F827104BF68F721140080090F480504A
:1057F00090F40050DFF8181940F4004050F0800099
:1058000080B241F8270018E03800C0B200F03CFD3B
:10581000DFF8FC1851F827104BF68F721140080082
:1058200090F4805090F40050DFF8E41840F4004009
:1058300050F0800080B241F82700DFF8400800688F
:1058400040698047002000E00220BDE8F283F8B5FF
:10585000DFF8240800684079040034F08000060076
:105860003500DFF8140800684079000607D5DFF836
:10587000A00850F8250010F03000070006E0DFF81F
:10588000900850F8250010F440500700DFF8F007AA
:10589000007885420DD2DFF8E007006840880028D4
:1058A00007D1002F05D0DFF8D0070068807A0028E4
:1058B00001D102202FE02000000613D5DFF8501898
:1058C00051F8251048F6BF721140080090F0100002
:1058D000DFF83C1840F4004050F0800080B241F8FE
:1058E000250012E0DFF8281851F825104BF68F72CA
:1058F0001140080090F48050DFF8141840F4004084
:1059000050F0800080B241F82500DFF87007006891
:10591000806980470020F2BD80B5DFF85C07006831
:10592000407A50F02000DFF8501709684872DFF81D
:105930004C070068C0698047002002BD10B4020017
:10594000DFF834070068408A030092B2002A07D1CA
:105950008888C01ADFF8204724682082002001E0F0
:105960000868181810BC7047F8B5DFF80C07006815
:1059700010F1100420880500A06800281BD0002D1D
:1059800019D0A0880700BD4200D22F00380080B295
:10599000A168884706002088C01B208060883818CE
:1059A0006080002000F0D3FC3A0092B2010089B27E
:1059B000300000F052FD208800280CD0DFF8580796
:1059C0004FF4405101800021002000F0CDFCDFF8B1
:1059D0004C07302101802088A188884205D3DFF858
:1059E00098060068032101721DE02088012805D374
:1059F000DFF8840600680521017214E02088002881
:105A000011D1DFF87406006806210172DFF8100773
:105A1000006880B2DFF80C17002241F81020DFF890
:105A2000FC0630210180F1BD2DE9F041DFF8480688
:105A3000006810F110042588DFF83C060068067A3B
:105A4000002D21D1042E1FD1DFF8DC0600780128BB
:105A500013D1DFF8CC06006880B2DFF8C816002248
:105A600041F81020DFF8B406302101800420060040
:105A7000DFF8B4060021017005E007200600DFF81A
:105A80009C06102101802EE0A0888046A84501D305
:105A9000042600E00226454500D2A846404680B2D2
:105AA000A16888470700002000F044FC424692B2FB
:105AB000010089B2380000F0B0FC414689B20020F4
:105AC00000F052FC2088B0EB08002080608818EBC2
:105AD00000006080DFF8440630210180DFF83806DE
